:08000300438F01D2AF020E98F9
:0E0E000048656C6C6F20576F726C640D0A00B1
:0A0E3500E490004CF090004BF02216
:100B2F00120E8443BC8043BC107F057E00120BB1B4
:100B3F0053BCEF7D80E4FF120E7DE4FF120DE01237
:100B4F000C7053F1FC43F10153F1F343F10453F1F2
:100B5F00CF43F11053F13F43F14043B0E8120D542E
:090B6F00120E49120E35D20A22C1
:10073900200A1AE5BD20E5030207C353BCBFD20A4C
:1007490053BDFE53BDDF53BDF7D2B7806DE5BD3054
:10075900E00DC20A43B0E8C2B753BDFE43BC40E551
:10076900BD30E412120C7053BDEFD2B3D2B5D2B67C
:10077900120E49120E35E5BD30E325900054E0FF15
:1007890090004CE0B50703120D83900054E09000EF
:100799004CF090004AE004F0E07002B2B353BDF7A8
:1007A900E5F86016E4F5C7E5CE30E203120E9E7552
:1007B900C703E5CE30E00353CEFE20B20BB2B57BC2
:1007C900FF7A0E7900120079120C495006120D1E9B
:0407D900120A3322AB
:060E9200120CFF020B2F01
:080E6500120EAC12073980FBEC
:060E9800120E92020E652D
:010EAC002223
:100D3B00AE0FAF10C3900001E09FFF900000E09E4C
:090D4B00FED3EF94FFEE947F2229
:100BB100AC0FAD10ED2FFFEC3E900000F0A3EFF075
:100BC10020AF13120D3B50047F0080027F01EF70B4
:100BD10013120E3F80ED120D3B50047F0080027F07
:040BE10001EF60F2CE
:010BE50022ED
:100CFF00E4F510F50FF50EF50D900051F0A3F0F59A
:0F0D0F008A758CF0438901438F02D28CD2A922BE
:0A0E3F0020AF06308D031209762261
:03000B0002097671
:10097600C0E0C0F0C083C082C0D075D000C000C047
:1009860004C005C006C007C28D438CF090005174A8
:100996001275F06F12039EFEC3E5F0946FEE94128B
:1009A600E450047F0480027F03FEFDFCE5102FF572
:1009B60010E50F3EF50FE50E3DF50EE50D3CF50D88
:1009C600D007D006D005D004D000D0D0D082D083B6
:0509D600D0F0D0E0327A
:100692001201000202000020EB03092020010000E9
:1006A20000010C03410054004D0045004C0036038C
:1006B2004100540038003900430035003100330056
:1006C2003100200045007600610042002000430016
:1006D2004400430020004500780061006D00700076
:1006E2006C0065000C0331002E0030002E0030003B
:1006F20004030904090243000201008032090400D4
:100702000001020201000524001001052401030179
:1007120004240206052406000107058303200002C3
:1007220009040100020A00000007058102200000FE
:070732000705020220000090
:1009DB00A3E5CFF0A3E5CFF0A3E5CFF022A3E0F59D
:1009EB00CFA3E0F5CFA3E0F5CF2204F053CEFB432A
:1009FB00CE102253CEFB43CE202290003BE0FBA334
:100A0B00E0FAA3E0F92253CEFB43CE802253CEDF94
:100A1B0053CEF722900029F090003B74FFF0A322F5
:080A2B0053CEFEE5CE54422239
:100C7000E490003FF0A3F0A3F0900039F090002D35
:100C8000F0A374E1F0E4A3F0A3F0A3F0A304F0A3B5
:060C90007408F0C20C2202
:100C96007D867F01120E7D7F01120DE07D827F022F
:100CA600120E7D7F02120DE07D877F03120E7D7F7F
:040CB60003020DE048
:060E9E00E4F5C70207DDC8
:1007DD0090003AE5CFF0AFCFEF1203F9083B0008D8
:1007ED002501083603081B05081106081608082000
:1007FD0009084C0A085120085621085B220860237D
:10080D00000008651204A6805A120CDE8055120DE8
:10081D006D8050120C19804B90003AE0B4A1051276
:10082D000EAF803F120874803A1209008035900097
:10083D003AE0B42105120EAE8029120A8B802412E3
:10084D000DAB801F120AE1801A120CBA8015120E20
:10085D000E8010120EAD800B1209FEE5CE30E3FBBB
:07086D00120A1853CE7F228E
:100D6D00AFCF1209F743BC01E5CE30E0FB53CEFE09
:050D7D00EF4480F5C603
:010D8200224E
:100C1900AFCF53CE7F53CEFBEFD394015007900053
:100C290039EFF0800C43CE20E5CE30E3FB120A18F1
:0F0C39002243CE10E5CE30E0FB53CEFE120C96D8
:010C48002289
:1004A600C20B90002CE5CFF0AFCFEF24FE60110415
:1004B600701C7412120A1F7406F0A37492F0802541
:1004C6007443120A1F7406F0A374F6F0801712091B
:1004D600FEE5CE20E305E5CE20E2F653CEF753CE79
:1004E600DF53CE7F22E5CFE5CF90002BE5CFF0900E
:1004F600002AE5CFF0900029E0FFFDA3E0FAA3E093
:10050600FBD39DEA9400400DEF541F7004D20B807C
:1005160009C20B8005900029EBF0120A1190002900
:10052600E0D394204021120A057D201205AC9000EC
:1005360029E024E0F0E5CE54427005E5CE30E0F542
:10054600120A2B60D8803D120A05900029E0FD12A0
:1005560005ACE4900029F0E5CE54427005E5CE30B6
:10056600E0F5120A2B6002801B300B1D120A05E40F
:10057600FD120DBDE5CE54427005E5CE30E0F51214
:100586000A2B600553CEEF8019E5CE54427005E57F
:10059600CE30E2F5E5CE20E20CE5CE5442600653BD
:0505A600CE7F53CEFDE5
:1005AB0022120DBD90003BEBF0A3EAF0A3E9F02281
:100CDE00120A11900039E0F5CF43CE10E5CE30E088
:100CEE00FB53CEFEE5CE544260FA53CEFD53CE7F7B
:010CFE0022D3
:100DAB00120A1143CE20E5CE30E3FB120A1853CEC4
:020DBB007F2295
:100A8B00E5CFE5CFAFCF120A1190003AE0247F609B
:100A9B000C14600E2402701975CF018014E4F5CF8D
:100AAB00800FEF547F243EF582E43400F583E0F5AC
:100ABB00CFE4F5CF43CE10E5CE30E0FBE5CE20E220
:100ACB00F653CEFEE5CE544260FAE5CE20E2F55366
:050ADB00CEFD53CE7FAB
:010AE00022F3
:1009000090003AE0700B1209FEE5CE30E3FB53CEC7
:10091000DF90003AE0B4010B1209FEE5CE30E3FBB4
:1009200053CEDF90003AE06402704AE5CF7046E5AE
:10093000CFAFCFEF24FE601A2481702E75C701431C
:10094000CE20E4F5C790003F1209F5E5CE30E0FB7C
:10095000801475C70243CE20E4F5C7900040120909
:10096000F5E5CE30E0FB53CEFE221209FEE5CE3097
:06097000E3FB120A18224D
:1008740090003AE0700B1209FEE5CE30E3FB53CE54
:10088400DF90003AE0B4010B1209FEE5CE30E3FB41
:1008940053CEDF90003AE064027060E5CF705CE50F
:1008A400CFAFCFEF603E24FE601F2481704275C736
:1008B4000153CEDF7F01120DE0E4F5C790003F1233
:1008C40009F6E5CE30E0FB802375C70253CEDF7F07
:1008D40002120DE0E4F5C79000401209F6E5CE30AF
:1008E400E0FB80081209F7E5CE30E0FB53CEFE2290
:0C08F4001209FEE5CE30E3FB53CEDF22FC
:100AE1009000351203C80000000053CEFBE5CE5440
:100AF1004260FA90002DE5CFF01209DB1209DB907C
:100B0100002DE0900038F090002EE0900037F0903A
:100B1100002FE0900036F0900030E0900035F05367
:0E0B2100CEFD43CE10E5CE30E0FB53CEFE22DB
:100CBA00120A1190002DE0F5CF1209E81209E84353
:100CCA00CE10E5CE30E0FB53CEFEE5CE544260FABC
:040CDA0053CEFD22D6
:0E0E0E00D20C1209F7E5CE30E0FB53CEFE22E7
:010EAD002222
:010EAE002221
:010EAF002220
:0D0E1C00120373F5CF740129F9E43AFA22AC
:070E7D008FC7AF058FD422DF
:100B780030F805E4F5C7802E30F90575C7018026E1
:100B880030FA0575C702801E30FB0575C70380164D
:100B980030FC0575C704800E30FD0575C705800655
:090BA80030FE0375C706AFC72239
:030EA900AFE22293
:090E5300AFE3EFFEADE2EDFF227A
:100DBD00E4F5C7AF051DEF6005120E1C80F543CE9F
:020DCD001022F2
:0F0DF100AF051DEF6005120E1C80F543CE1022DA
:100DCF00AF051DEF600AE5CF12038C120E2180F0E4
:010DDF0022F1
:090E5C008FC7E4F5CE43CE20223D
:100DE0007401A807088002C333D8FCF5D5E4F5D513
:010DF00022E0
:070E840075A42043A3022224
:070E8B00120E8443BC80221B
:100BE60041746D656C202852290A244E616D653A60
:100BF6002063353133312D7573622D6364632D7037
:100C0600696E672D706F6E672D315F305F322024FD
:030C16000A0A00C7
:050EA400A298920D224E
:100D5400759840538FF7438F0175CBFF75CAF775AC
:090D6400C834D2CA439812D3220C
:080E6D003099FDC2998F992212
:070E75003098FDAF99C2980F
:010E7C002253
:1005BB0012041F05F8000004B006040000096006D1
:1005CB0010000012C0061C00002580062800004BFE
:1005DB0000063400007080064000009600064C00B8
:1005EB0000E100065B0001C2000000066E90004DAA
:1005FB001203C80000FE60805290004D1203C80029
:10060B0000FF30804690004D1203C80000FF988019
:10061B003A90004D1203C80000FFCC802E90004D85
:10062B001203C80000FFE6802290004D1203C800A1
:10063B0000FFEF801690004D1203C80000FFF380FF
:10064B000A90004D1203C80000FFF7438F08801378
:10065B0090004D1203C80000FFF7538FF7538FF72D
:10066B00438F0190004DE0FCA3E0FDA3E0FEA3E06F
:10067B00FF78081203B48FCB90004DA3A3A3E0F532
:07068B00CA75C834D2CA226F
:0A0E4900E4900054F0900053F022F2
:100C4900900053E0701675C702E5CE5442600D124C
:100C59000EA9900053EFF0700353CEFD900053E0BE
:070C69006003D38001C322E8
:100D1E0075C702900053E07005120C4950FBAFCF1F
:0C0D2E00900053E014F0E0700353CEFD81
:010D3A002296
:100D980075C701E5CE30E402C322E5CE30E002C3D8
:030DA80022D32231
:100A3300900028EFF075C701E5CE20E405E5CE3040
:100A4300E02BE5CE20E01BE4F5C7E5CE30E2031250
:100A53000E9E75C703E5CE30E00353CEFE75C70186
:100A630080E075C70153CEFEE4900054F090002857
:100A7300E0F5CF900054E004F0E0C3941F4003126C
:080A83000D83900028E0FF2222
:100D8300900039E0600E900054E0600875C701439D
:050D9300CE10E4F02287
:03000000020E29C4
:0C0E2900787FE4F6D8FD758121020003FB
:10037300BB010689828A83E0225002E722BBFE0288
:09038300E32289828A83E49322BB
:10038C00BB010689828A83F0225002F722BBFE0150
:02039C00F3224A
:10039E00C5F0F8A3E028F0C5F0F8E58215827002EA
:0603AE001583E038F02287
:1003B400E86010ECA2E713FCED13FDEE13FEEF135F
:0403C400FFD8F0224C
:1003C800A8828583F0D083D0821203DF1203DF1264
:1003D80003DF1203DFE473E493A3C583C5F0C58389
:1003E800C8C582C8F0A3C583C5F0C583C8C582C87F
:0103F80022E2
:1003F900D083D082F8E4937012740193700DA3A393
:1004090093F8740193F5828883E4737402936860A6
:06041900EFA3A3A380DFA6
:10041F00D083D082E4937012740193700DA3A393D1
:10042F00F8740193F5828883E4737402936C7012ED
:10043F007403936D700C7404936E70067405936F50
:0A044F0060DDA3A3A3A3A3A380CA4A
:10000E00E5082403F582E43400F583E00508229028
:10001E000000300703900003E475F001120486021D
:10002E0003732000E97F2ED2008018EF540F249026
:10003E00D43440D4FF30040BEF24BFB41A00500365
:10004E002461FFE50960021509050CE50C70020537
:10005E000B30070E900000E475F001120486EF02DB
:10006E00038C020A337403D2078003E4C207F50837
:10007E0090000012049DE4F509F50BF50CE50960FE
:10008E00077F2012005180F5750AFFC201C200C21F
:10009E0002C203C205C206C20812001DFF700D3057
:1000AE0007057F00120062AF0CAE0B22B4255FC2B3
:1000BE00D5C20412001DFF24D0B40A00501A75F0E8
:1000CE000A780930D50508B6FF0106C6A426F62023
:1000DE00D5047002D20380D924CFB41A00EF500495
:1000EE00C2E5D204020263D20180C6D20080C0D221
:1000FE000280BCD2D580BAD20580B47F20120051C6
:10010E002002077401B5090040F112000EFF120023
:10011E005102008BD208D206809512000EFB1200FF
:10012E000EFA12000EF94A4B700679347A037BFFF1
:10013E0020022EE509602A7E008E8275830012044D
:10014E005960060EEE650A70F0C2D5EBC0E0EAC04B
:10015E00E0E9C0E0EE1202AAD0E0F9D0E0FAD0E079
:10016E00FB120373FF60AAEBC0E0EAC0E0E9C0E057
:10017E00120051D0E02401F9D0E03400FAD0E0FBB7
:10018E00E50A0460DCD50AD980877BFF7A0279A65E
:10019E00D202809C791080027908C206C2088008BB
:1001AE00D2D5790A8004790AC2D5E50A047002F51F
:1001BE000AE4FAFDFEFF12000EFC7B08200113126A
:1001CE00000EFD7B1030000A12000EFE12000EFF14
:1001DE007B20EC3382D592D55013C3E43000069FBA
:1001EE00FFE49EFEE42001039DFDE49CFCE4CBF8BD
:1001FE00C201EC700CCFCECDCCE824F8F870F380B1
:10020E0017C3EF33FFEE33FEED33FDEC33FCEB3370
:10021E00FB994002FB0FD8E9EB300105F8D0E0C4A2
:10022E0048B201C0E00AEC4D4E4F78207B0070C200
:10023E00EAB50A0040BCC0E01202ACD0F0D0E0201B
:10024E000104C4C0E0C4B201C0F012003AD0F0D52F
:10025E00F0EB02008B1203F901285301A25800F9AA
:10026E004C00F54201A64F01AE4401AE49010E43CA
:08027E0001B4550198460198F6
:100286004501984703545000FD2D01012E01242BF2
:10029600010523012220033D2A00BD480000011C60
:1002A6003F3F3F00790AA2D5200314300509B91053
:1002B600020404B9080104A2D52006025001042054
:1002C60002689202B509005034C0E07F203003195D
:1002D6007F30A20272067205500F120303C202C2D9
:1002E60006C205C2087F30800F300503E9C0E01260
:1002F6000051300503D0E0F9D0E0B509CC30051740
:100306007F30B9100C1200517F583004077F788077
:1003160003B908031200513002057F2D0200517FF8
:10032600202008F87F2B2006F322920280CF286E29
:10033600756C6C2900D20112000E3001F8C20178EA
:100346000930D50108F60200BD2D50434958120068
:100356000E2403B405004001E490034F93120042BB
:0D036600743A120042D2037509040201A28C
:10045900BB010CE58229F582E5833AF583E0225058
:1004690006E92582F8E622BBFE06E92582F8E222A2
:0D047900E58229F582E5833AF583E49322BC
:10048600F8E0FBA3A3E0F925F0F0E58215827002FF
:070496001583E0FA38F022A3
:09049D00EBF0A3EAF0A3E9F02260
:00000001FF
