:08000300438F01D2AF020B5440
:050B480042001F000047
:0A0AEB00E4900021F090001EF022BC
:10080F00120B3A43BC8043BC107F057E0012089147
:10081F0053BCEF7D80E4FF120B33E4FF120AB012DA
:10082F00091D53F1FC43F10153F1F343F10453F16B
:10083F00CF43F11053F13F43F14043B0E8120A2187
:09084F00120AFF120AEBD2012289
:1002E00020011AE5BD20E50302036A53BCBFD20119
:1002F00053BDFE53BDDF53BDF7D2B7806DE5BD30B2
:10030000E00DC20143B0E8C2B753BDFE43BC40E5B7
:10031000BD30E41212091D53BDEFD2B3D2B5D2B62F
:10032000120AFF120AEBE5BD30E32590002EE0FF34
:10033000900021E0B50703120A6690002EE09000BD
:1003400021F090001DE004F0E07002B2B353BDF75D
:10035000E5F86016E4F5C7E5CE30E203120B5A75F6
:10036000C703E5CE30E00353CEFE20B2191208F6E3
:100370005012B2947F611207131208F65006120948
:0A038000EB120713B2B51208F622C3
:060B4E001209CC02080FA1
:080B1B00120B681202E080FBDE
:060B5400120B4E020B1B08
:010B6800226A
:100A0800AE0AAF0BC3900023E09FFF900022E09E48
:090A1800FED3EF94FFEE947F225F
:10089100AC0AAD0BED2FFFEC3E900022F0A3EFF080
:1008A10020AF13120A0850047F0080027F01EF700D
:1008B10013120AF580ED120A0850047F0080027FAE
:0408C10001EF60F2F1
:0108C5002210
:1009CC00E4F50BF50AF509F50890002BF0A3F0F50A
:0F09DC008A758CF0438901438F02D28CD2A922F5
:0A0AF50020AF06308D0312065622D2
:03000B0002065694
:10065600C0E0C0F0C083C082C0D075D000C000C06A
:1006660004C005C006C007C28D438CF090002B74F1
:100676000C75F04A12014EFEC3E5F0944AEE940C56
:10068600E450047F0380027F02FEFDFCE50B2FF59C
:100696000BE50A3EF50AE5093DF509E5083CF508CE
:1006A600D007D006D005D004D000D0D0D082D083D9
:0506B600D0F0D0E0329D
:10038A001201000202000020EB03FD2F20010000F1
:10039A0000010C03410054004D0045004C00360397
:1003AA004100540038003900430035003100330061
:1003BA003100200045007600610042002000430021
:1003CA004400430020004500780061006D00700081
:1003DA006C0065000C0331002E0030002E00300046
:1003EA0004030904090243000201008032090400DF
:1003FA000001020201000524001001052401030185
:10040A0004240206052406000107058303200002CE
:10041A0009040100020A0000000705810220000009
:07042A00070502022000009B
:1006BB00A3E5CFF0A3E5CFF0A3E5CFF022A3E0F5C0
:1006CB00CFA3E0F5CFA3E0F5CF2204F053CEFB434D
:1006DB00CE102253CEFB43CE202290000EE0FBA384
:1006EB00E0FAA3E0F92253CEFB43CE802253CEDFB8
:1006FB0053CEF722900023F090000E74FFF0A3224C
:08070B0053CEFEE5CE5442225C
:10091D00E4900012F0A3F0A3F090000CF090000012
:10092D00F0A374E1F0E4A3F0A3F0A3F0A304F0A30B
:06093D007408F0C2032261
:100943007D867F01120B337F01120AB07D827F0205
:10095300120B337F02120AB07D877F03120B337FA2
:0409630003020AB0D1
:060B5A00E4F5C7020431BE
:1004310090000DE5CFF0AFCFEF1201A9048F0004BA
:100441007901048A03046F05046506046A080474CB
:100451000904A00A04A52004AA2104AF2204B4239C
:10046100000004B912000E805A12098B8055120A3D
:100471003A80501208C6804B90000DE0B4A10512DD
:100481000B6B803F1204C8803A1205E08035900062
:100491000DE0B42105120B6A802912076B8024122A
:1004A1000A7B801F1207C1801A1209678015120A80
:1004B100D08010120B69800B1206DEE5CE30E3FB13
:0704C1001206F853CE7F2262
:100A3A00AFCF1206D743BC01E5CE30E0FB53CEFE62
:050A4A00EF4480F5C639
:010A4F002284
:1008C600AFCF53CE7F53CEFBEFD3940150079000AA
:1008D6000CEFF0800C43CE20E5CE30E3FB1206F899
:0F08E6002243CE10E5CE30E0FB53CEFE12094385
:0108F50022E0
:10000E00C202900026E5CFF0AFCFEF24FE601104C0
:10001E00701C74121206FF7403F0A3748AF080250C
:10002E0074431206FF7403F0A374EEF080171206E9
:10003E00DEE5CE20E305E5CE20E2F653CEF753CE35
:10004E00DF53CE7F22E5CFE5CF900025E5CFF090B0
:10005E000024E5CFF0900023E0FFFDA3E0FAA3E03B
:10006E00FBD39DEA9400400DEF541F7004D2028022
:10007E0009C2028005900023EBF01206F1900023D6
:10008E00E0D3942040211206E57D20120114900049
:10009E0023E024E0F0E5CE54427005E5CE30E0F5E5
:1000AE0012070B60D8803D1206E5900023E0FD128A
:1000BE000114E4900023F0E5CE54427005E5CE30F5
:1000CE00E0F512070B6002801B30021D1206E5E4FC
:1000DE00FD120A8DE5CE54427005E5CE30E0F512E4
:1000EE00070B600553CEEF8019E5CE54427005E53F
:1000FE00CE30E2F5E5CE20E20CE5CE54426006535A
:05010E00CE7F53CEFD81
:1001130022120A8D90000EEBF0A3EAF0A3E9F0227D
:10098B001206F190000CE0F5CF43CE10E5CE30E02F
:10099B00FB53CEFEE5CE544260FA53CEFD53CE7FD1
:0109AB002229
:100A7B001206F143CE20E5CE30E3FB1206F853CE3F
:020A8B007F22C8
:10076B00E5CFE5CFAFCF1206F190000DE0247F600F
:10077B000C14600E2402701975CF018014E4F5CFB0
:10078B00800FEF547F2411F582E43400F583E0F5FC
:10079B00CFE4F5CF43CE10E5CE30E0FBE5CE20E243
:1007AB00F653CEFEE5CE544260FAE5CE20E2F55389
:0507BB00CEFD53CE7FCE
:0107C0002216
:1005E00090000DE0700B1206DEE5CE30E3FB53CE3B
:1005F000DF90000DE0B4010B1206DEE5CE30E3FB28
:1006000053CEDF90000DE06402704AE5CF7046E5FE
:10061000CFAFCFEF24FE601A2481702E75C701433F
:10062000CE20E4F5C79000121206D5E5CE30E0FBEF
:10063000801475C70243CE20E4F5C790001312065C
:10064000D5E5CE30E0FB53CEFE221206DEE5CE30FD
:06065000E3FB1206F82294
:1004C80090000DE0700B1206DEE5CE30E3FB53CE54
:1004D800DF90000DE0B4010B1206DEE5CE30E3FB41
:1004E80053CEDF90000DE064027060E5CF705CE5EC
:1004F800CFAFCFEF603E24FE601F2481704275C7E6
:100508000153CEDF7F01120AB0E4F5C79000121242
:1005180006D6E5CE30E0FB802375C70253CEDF7FD9
:1005280002120AB0E4F5C79000131206D6E5CE30E1
:10053800E0FB80081206D7E5CE30E0FB53CEFE2262
:0C0548001206DEE5CE30E3FB53CEDF22CE
:1007C1009000081201780000000053CEFBE5CE54E2
:1007D1004260FA900000E5CFF01206BB1206BB9012
:1007E1000000E090000BF0900001E090000AF09012
:1007F1000002E0900009F0900003E0900008F0533F
:0E080100CEFD43CE10E5CE30E0FB53CEFE22FE
:100967001206F1900000E0F5CF1206C81206C84340
:10097700CE10E5CE30E0FB53CEFEE5CE544260FA12
:0409870053CEFD222C
:0E0AD000D2031206D7E5CE30E0FB53CEFE2255
:010B69002269
:010B6A002268
:010B6B002267
:0D0ADE00120123F5CF740129F9E43AFA2240
:070B33008FC7AF058FD4222C
:1008580030F805E4F5C7802E30F90575C701802604
:1008680030FA0575C702801E30FB0575C703801670
:1008780030FC0575C704800E30FD0575C705800678
:0908880030FE0375C706AFC7225C
:030B6500AFE222DA
:090B0900AFE3EFFEADE2EDFF22C7
:100A8D00E4F5C7AF051DEF6005120ADE80F543CE14
:020A9D00102225
:0F0AC100AF051DEF6005120ADE80F543CE10224F
:100A9F00AF051DEF600AE5CF12013C120AE380F0AB
:010AAF002224
:090B12008FC7E4F5CE43CE20228A
:100AB0007401A807088002C333D8FCF5D5E4F5D546
:010AC0002213
:070B3A0075A41043A3022281
:070B4100120B3A43BC8022B5
:1009AC0041746D656C202852290A63353133312D21
:1009BC007573622D6364632D315F325F310A0A00F7
:050B6000A2989204229E
:100A2100759840538FF7438F0175CBFF75CAF375E6
:090A3100C834D2CA439812D32242
:080B23003099FDC2998F99225F
:070B2B003098FDAF99C2985C
:010B320022A0
:100209001201CF0246000004B00252000009600248
:100219005E000012C0026A00002580027600004BD1
:1002290000028200007080028E00009600029A008F
:1002390000E10002A90001C200000002BC900027F1
:100249001201780000FE60805290002712017800A8
:1002590000FF3080469000271201780000FF988047
:100269003A9000271201780000FFCC802E900027D9
:100279001201780000FFE680229000271201780021
:1002890000FFEF80169000271201780000FFF3802D
:100299000A9000271201780000FFF7438F088013A6
:1002A9009000271201780000FFF7538FF7538FF75B
:1002B900438F01900027E0FCA3E0FDA3E0FEA3E04B
:1002C900FF78081201648FCB900027A3A3A3E0F560
:0702D900CA75C834D2CA2225
:0A0AFF00E490002EF090002DF0228C
:1008F60090002DE0701675C702E5CE5442600D12C9
:100906000B6590002DEFF0700353CEFD90002DE0A7
:070916006003D38001C3223E
:1009EB0075C70290002DE070051208F650FBAFCFD3
:0C09FB0090002DE014F0E0700353CEFDDE
:010A070022CC
:100A500075C701E5CE30E402C322E5CE30E0055390
:060A6000CEFED322D322DA
:10071300900022EFF075C701E5CE20E405E5CE3069
:10072300E02BE5CE20E01BE4F5C7E5CE30E2031273
:100733000B5A75C703E5CE30E00353CEFE75C701F0
:1007430080E075C70153CEFEE490002EF0900022A6
:10075300E0F5CF90002EE004F0E0C3941F400312B5
:080763000A66900022E0FF226B
:100A660090000CE0600E90002EE0600875C7014310
:050A7600CE10E4F022A7
:03000000020554A2
:0C055400787FE4F6D8FD75812002059B3D
:10012300BB010689828A83E0225002E722BBFE02DA
:09013300E32289828A83E493220D
:10013C00BB010689828A83F0225002F722BBFE01A2
:02014C00F3229C
:10014E00C5F0F8A3E028F0C5F0F8E582158270023C
:06015E001583E038F022D9
:10016400E86010ECA2E713FCED13FDEE13FEEF13B1
:04017400FFD8F0229E
:10017800A8828583F0D083D08212018F12018F125A
:10018800018F12018FE473E493A3C583C5F0C5837F
:10019800C8C582C8F0A3C583C5F0C583C8C582C8D1
:0101A8002234
:1001A900D083D082F8E4937012740193700DA3A3E5
:1001B90093F8740193F5828883E4737402936860F9
:0601C900EFA3A3A380DFF9
:1001CF00D083D082E4937012740193700DA3A39324
:1001DF00F8740193F5828883E4737402936C701240
:1001EF007403936D700C7404936E70067405936FA3
:0A01FF0060DDA3A3A3A3A3A380CA9D
:10056000020003E493A3F8E493A34003F68001F2AE
:1005700008DFF48029E493A3F85407240CC8C3339C
:10058000C4540F4420C8834004F456800146F6DF6B
:10059000E4800B0102040810204080900B48E47EA8
:1005A000019360BCA3FF543F30E509541FFEE49360
:1005B000A360010ECF54C025E060A840B8E493A327
:1005C000FAE493A3F8E493A3C8C582C8CAC583CA52
:1005D000F0A3C8C582C8CAC583CADFE9DEE780BE0A
:010B4D0000A7
:00000001FF
