:100CEC00438F01D2AF120E9F120D8F50FB120C16B8
:020CFC0050F6B0
:0B0CFE00120D2A900000EFF0120A33E4
:020D090080E97F
:0E0E0F0048656C6C6F20576F726C640D0A00A2
:0A0E4400E490004DF090004CF02205
:100B2F00120E8B43BC8043BC107F057E00120BB1AD
:100B3F0053BCEF7D80E4FF120E84E4FF120DEF1221
:100B4F000C3D53F1FC43F10153F1F343F10453F125
:100B5F00CF43F11053F13F43F14043B0E8120D6022
:090B6F00120E58120E44D20A22A3
:10073900200A1AE5BD20E5030207C353BCBFD20A4C
:1007490053BDFE53BDDF53BDF7D2B7806DE5BD3054
:10075900E00DC20A43B0E8C2B753BDFE43BC40E551
:10076900BD30E412120C3D53BDEFD2B3D2B5D2B6AF
:10077900120E58120E44E5BD30E325900055E0FFF6
:1007890090004DE0B50703120DA5900055E09000CB
:100799004DF090004BE004F0E07002B2B353BDF7A6
:1007A900E5F86016E4F5C7E5CE30E203120EA5754B
:1007B900C703E5CE30E00353CEFE20B20BB2B57BC2
:1007C900FF7A0E790F120079120C165006120D2AB3
:0407D900120A3322AB
:060E9900120D0B020B2FED
:08000300120EB312073980FB55
:060E9F00120E990200038F
:010EB300221C
:100D4700AE0FAF10C3900002E09FFF900001E09E3E
:090D5700FED3EF94FFEE947F221D
:100BB100AC0FAD10ED2FFFEC3E900001F0A3EFF074
:100BC10020AF13120D4750047F0080027F01EF70A8
:100BD10013120E4E80ED120D4750047F0080027FEC
:040BE10001EF60F2CE
:010BE50022ED
:100D0B00E4F510F50FF50EF50D900052F0A3F0F58C
:0F0D1B008A758CF0438901438F02D28CD2A922B2
:0A0E4E0020AF06308D031209762252
:03000B0002097671
:10097600C0E0C0F0C083C082C0D075D000C000C047
:1009860004C005C006C007C28D438CF090005274A7
:100996000C75F04A12039EFEC3E5F0944AEE940CE1
:1009A600E450047F0380027F02FEFDFCE5102FF574
:1009B60010E50F3EF50FE50E3DF50EE50D3CF50D88
:1009C600D007D006D005D004D000D0D0D082D083B6
:0509D600D0F0D0E0327A
:100692001201000202000020EB03FD2F20010000E6
:1006A20000010C03410054004D0045004C0036038C
:1006B2004100540038003900430035003100330056
:1006C2003100200045007600610042002000430016
:1006D2004400430020004500780061006D00700076
:1006E2006C0065000C0331002E0030002E0030003B
:1006F20004030904090243000201008032090400D4
:100702000001020201000524001001052401030179
:1007120004240206052406000107058303200002C3
:1007220009040100020A00000007058102200000FE
:070732000705020220000090
:1009DB00A3E5CFF0A3E5CFF0A3E5CFF022A3E0F59D
:1009EB00CFA3E0F5CFA3E0F5CF2204F053CEFB432A
:1009FB00CE102253CEFB43CE202290003CE0FBA333
:100A0B00E0FAA3E0F92253CEFB43CE802253CEDF94
:100A1B0053CEF72290002AF090003C74FFF0A322F3
:080A2B0053CEFEE5CE54422239
:100C3D00E4900040F0A3F0A3F090003AF090002E65
:100C4D00F0A374E1F0E4A3F0A3F0A3F0A304F0A3E8
:060C5D007408F0C20C2235
:100C63007D867F01120E847F01120DEF7D827F024C
:100C7300120E847F02120DEF7D877F03120E847F95
:040C830003020DEF6C
:060EA500E4F5C70207DDC1
:1007DD0090003BE5CFF0AFCFEF1203F9083B0008D7
:1007ED002501083603081B05081106081608082000
:1007FD0009084C0A085120085621085B220860237D
:10080D00000008651204A6805A120CAB8055120D1B
:10081D00798050120BE6804B90003BE0B4A105129D
:10082D000EB6803F120874803A1209008035900090
:10083D003BE0B42105120EB58029120A8B802412DB
:10084D000DBA801F120AE1801A120C878015120E44
:10085D001D8010120EB4800B1209FEE5CE30E3FBA5
:07086D00120A1853CE7F228E
:100D7900AFCF1209F743BC01E5CE30E0FB53CEFEFD
:050D8900EF4480F5C6F7
:010D8E002242
:100BE600AFCF53CE7F53CEFBEFD394015007900087
:100BF6003AEFF0800C43CE20E5CE30E3FB120A1824
:0F0C06002243CE10E5CE30E0FB53CEFE120C633E
:010C150022BC
:1004A600C20B90002DE5CFF0AFCFEF24FE60110414
:1004B600701C7412120A1F7406F0A37492F0802541
:1004C6007443120A1F7406F0A374F6F0801712091B
:1004D600FEE5CE20E305E5CE20E2F653CEF753CE79
:1004E600DF53CE7F22E5CFE5CF90002CE5CFF0900D
:1004F600002BE5CFF090002AE0FFFDA3E0FAA3E091
:10050600FBD39DEA9400400DEF541F7004D20B807C
:1005160009C20B800590002AEBF0120A1190002AFE
:10052600E0D394204021120A057D201205AC9000EC
:100536002AE024E0F0E5CE54427005E5CE30E0F541
:10054600120A2B60D8803D120A0590002AE0FD129F
:1005560005ACE490002AF0E5CE54427005E5CE30B5
:10056600E0F5120A2B6002801B300B1D120A05E40F
:10057600FD120DCCE5CE54427005E5CE30E0F51205
:100586000A2B600553CEEF8019E5CE54427005E57F
:10059600CE30E2F5E5CE20E20CE5CE5442600653BD
:0505A600CE7F53CEFDE5
:1005AB0022120DCC90003CEBF0A3EAF0A3E9F02271
:100CAB00120A1190003AE0F5CF43CE10E5CE30E0BA
:100CBB00FB53CEFEE5CE544260FA53CEFD53CE7FAE
:010CCB002206
:100DBA00120A1143CE20E5CE30E3FB120A1853CEB5
:020DCA007F2286
:100A8B00E5CFE5CFAFCF120A1190003BE0247F609A
:100A9B000C14600E2402701975CF018014E4F5CF8D
:100AAB00800FEF547F243FF582E43400F583E0F5AB
:100ABB00CFE4F5CF43CE10E5CE30E0FBE5CE20E220
:100ACB00F653CEFEE5CE544260FAE5CE20E2F55366
:050ADB00CEFD53CE7FAB
:010AE00022F3
:1009000090003BE0700B1209FEE5CE30E3FB53CEC6
:10091000DF90003BE0B4010B1209FEE5CE30E3FBB3
:1009200053CEDF90003BE06402704AE5CF7046E5AD
:10093000CFAFCFEF24FE601A2481702E75C701431C
:10094000CE20E4F5C79000401209F5E5CE30E0FB7B
:10095000801475C70243CE20E4F5C7900041120908
:10096000F5E5CE30E0FB53CEFE221209FEE5CE3097
:06097000E3FB120A18224D
:1008740090003BE0700B1209FEE5CE30E3FB53CE53
:10088400DF90003BE0B4010B1209FEE5CE30E3FB40
:1008940053CEDF90003BE064027060E5CF705CE50E
:1008A400CFAFCFEF603E24FE601F2481704275C736
:1008B4000153CEDF7F01120DEFE4F5C79000401223
:1008C40009F6E5CE30E0FB802375C70253CEDF7F07
:1008D40002120DEFE4F5C79000411209F6E5CE309F
:1008E400E0FB80081209F7E5CE30E0FB53CEFE2290
:0C08F4001209FEE5CE30E3FB53CEDF22FC
:100AE1009000361203C80000000053CEFBE5CE543F
:100AF1004260FA90002EE5CFF01209DB1209DB907B
:100B0100002EE0900039F090002FE0900038F09036
:100B11000030E0900037F0900031E0900036F05363
:0E0B2100CEFD43CE10E5CE30E0FB53CEFE22DB
:100C8700120A1190002EE0F5CF1209E81209E84385
:100C9700CE10E5CE30E0FB53CEFEE5CE544260FAEF
:040CA70053CEFD2209
:0E0E1D00D20C1209F7E5CE30E0FB53CEFE22D8
:010EB400221B
:010EB500221A
:010EB6002219
:0D0E2B00120373F5CF740129F9E43AFA229D
:070E84008FC7AF058FD422D8
:100B780030F805E4F5C7802E30F90575C7018026E1
:100B880030FA0575C702801E30FB0575C70380164D
:100B980030FC0575C704800E30FD0575C705800655
:090BA80030FE0375C706AFC72239
:030EB000AFE2228C
:090E6200AFE3EFFEADE2EDFF226B
:100DCC00E4F5C7AF051DEF6005120E2B80F543CE81
:020DDC001022E3
:0F0E0000AF051DEF6005120E2B80F543CE1022BB
:100DDE00AF051DEF600AE5CF12038C120E3080F0C6
:010DEE0022E2
:090E6B008FC7E4F5CE43CE20222E
:100DEF007401A807088002C333D8FCF5D5E4F5D504
:010DFF0022D1
:070E8B0075A41043A302222D
:070E9200120E8B43BC80220D
:100CCC0041746D656C202852290A63353133312DFE
:100CDC007573622D6364632D315F325F310A0A00D4
:050EAB00A298920D2247
:100D6000759840538FF7438F0175CBFF75CAF375A4
:090D7000C834D2CA439812D32200
:080E74003099FDC2998F99220B
:070E7C003098FDAF99C29808
:010E8300224C
:1005BB0012041F05F8000004B006040000096006D1
:1005CB0010000012C0061C00002580062800004BFE
:1005DB0000063400007080064000009600064C00B8
:1005EB0000E100065B0001C2000000066E90004EA9
:1005FB001203C80000FE60805290004E1203C80028
:10060B0000FF30804690004E1203C80000FF988018
:10061B003A90004E1203C80000FFCC802E90004E83
:10062B001203C80000FFE6802290004E1203C800A0
:10063B0000FFEF801690004E1203C80000FFF380FE
:10064B000A90004E1203C80000FFF7438F08801377
:10065B0090004E1203C80000FFF7538FF7538FF72C
:10066B00438F0190004EE0FCA3E0FDA3E0FEA3E06E
:10067B00FF78081203B48FCB90004EA3A3A3E0F531
:07068B00CA75C834D2CA226F
:0A0E5800E4900055F0900054F022E1
:100C1600900054E0701675C702E5CE5442600D127E
:100C26000EB0900054EFF0700353CEFD900054E0E8
:070C36006003D38001C3221B
:100D2A0075C702900054E07005120C1650FBAFCF45
:0C0D3A00900054E014F0E0700353CEFD74
:010D4600228A
:100D8F0075C701E5CE30E402C322E5CE30E005534E
:060D9F00CEFED322D32298
:100A3300900029EFF075C701E5CE20E405E5CE303F
:100A4300E02BE5CE20E01BE4F5C7E5CE30E2031250
:100A53000EA575C703E5CE30E00353CEFE75C7017F
:100A630080E075C70153CEFEE4900055F090002955
:100A7300E0F5CF900055E004F0E0C3941F4003126B
:080A83000DA5900029E0FF22FF
:100DA50090003AE0600E900055E0600875C7014379
:050DB500CE10E4F02265
:03000000020E38B5
:0C0E3800787FE4F6D8FD758121020CECF7
:10037300BB010689828A83E0225002E722BBFE0288
:09038300E32289828A83E49322BB
:10038C00BB010689828A83F0225002F722BBFE0150
:02039C00F3224A
:10039E00C5F0F8A3E028F0C5F0F8E58215827002EA
:0603AE001583E038F02287
:1003B400E86010ECA2E713FCED13FDEE13FEEF135F
:0403C400FFD8F0224C
:1003C800A8828583F0D083D0821203DF1203DF1264
:1003D80003DF1203DFE473E493A3C583C5F0C58389
:1003E800C8C582C8F0A3C583C5F0C583C8C582C87F
:0103F80022E2
:1003F900D083D082F8E4937012740193700DA3A393
:1004090093F8740193F5828883E4737402936860A6
:06041900EFA3A3A380DFA6
:10041F00D083D082E4937012740193700DA3A393D1
:10042F00F8740193F5828883E4737402936C7012ED
:10043F007403936D700C7404936E70067405936F50
:0A044F0060DDA3A3A3A3A3A380CA4A
:10000E00E5082404F582E43400F583E00508229027
:10001E000001300703900004E475F001120486021B
:10002E0003732000E97F2ED2008018EF540F249026
:10003E00D43440D4FF30040BEF24BFB41A00500365
:10004E002461FFE50960021509050CE50C70020537
:10005E000B30070E900001E475F001120486EF02DA
:10006E00038C020A337403D2078003E4C207F50837
:10007E0090000112049DE4F509F50BF50CE50960FD
:10008E00077F2012005180F5750AFFC201C200C21F
:10009E0002C203C205C206C20812001DFF700D3057
:1000AE0007057F00120062AF0CAE0B22B4255FC2B3
:1000BE00D5C20412001DFF24D0B40A00501A75F0E8
:1000CE000A780930D50508B6FF0106C6A426F62023
:1000DE00D5047002D20380D924CFB41A00EF500495
:1000EE00C2E5D204020263D20180C6D20080C0D221
:1000FE000280BCD2D580BAD20580B47F20120051C6
:10010E002002077401B5090040F112000EFF120023
:10011E005102008BD208D206809512000EFB1200FF
:10012E000EFA12000EF94A4B700679347A037BFFF1
:10013E0020022EE509602A7E008E8275830012044D
:10014E005960060EEE650A70F0C2D5EBC0E0EAC04B
:10015E00E0E9C0E0EE1202AAD0E0F9D0E0FAD0E079
:10016E00FB120373FF60AAEBC0E0EAC0E0E9C0E057
:10017E00120051D0E02401F9D0E03400FAD0E0FBB7
:10018E00E50A0460DCD50AD980877BFF7A0279A65E
:10019E00D202809C791080027908C206C2088008BB
:1001AE00D2D5790A8004790AC2D5E50A047002F51F
:1001BE000AE4FAFDFEFF12000EFC7B08200113126A
:1001CE00000EFD7B1030000A12000EFE12000EFF14
:1001DE007B20EC3382D592D55013C3E43000069FBA
:1001EE00FFE49EFEE42001039DFDE49CFCE4CBF8BD
:1001FE00C201EC700CCFCECDCCE824F8F870F380B1
:10020E0017C3EF33FFEE33FEED33FDEC33FCEB3370
:10021E00FB994002FB0FD8E9EB300105F8D0E0C4A2
:10022E0048B201C0E00AEC4D4E4F78207B0070C200
:10023E00EAB50A0040BCC0E01202ACD0F0D0E0201B
:10024E000104C4C0E0C4B201C0F012003AD0F0D52F
:10025E00F0EB02008B1203F901285301A25800F9AA
:10026E004C00F54201A64F01AE4401AE49010E43CA
:08027E0001B4550198460198F6
:100286004501984703545000FD2D01012E01242BF2
:10029600010523012220033D2A00BD480000011C60
:1002A6003F3F3F00790AA2D5200314300509B91053
:1002B600020404B9080104A2D52006025001042054
:1002C60002689202B509005034C0E07F203003195D
:1002D6007F30A20272067205500F120303C202C2D9
:1002E60006C205C2087F30800F300503E9C0E01260
:1002F6000051300503D0E0F9D0E0B509CC30051740
:100306007F30B9100C1200517F583004077F788077
:1003160003B908031200513002057F2D0200517FF8
:10032600202008F87F2B2006F322920280CF286E29
:10033600756C6C2900D20112000E3001F8C20178EA
:100346000930D50108F60200BD2D50434958120068
:100356000E2403B405004001E490034F93120042BB
:0D036600743A120042D2037509040201A28C
:10045900BB010CE58229F582E5833AF583E0225058
:1004690006E92582F8E622BBFE06E92582F8E222A2
:0D047900E58229F582E5833AF583E49322BC
:10048600F8E0FBA3A3E0F925F0F0E58215827002FF
:070496001583E0FA38F022A3
:09049D00EBF0A3EAF0A3E9F02260
:00000001FF
